:1000000021C045C044C043C042C05AC440C03FC0E4
:100010003EC03DC03CC03BC03AC039C038C0000003
:10002000000037000000000038000000000036002B
:100030000202020202020102040810200102000072
:100040000000A80011241FBECFE5D2E0DEBFCDBF67
:1000500010E0A0E6B0E0EAEEF0E102C005900D92FB
:10006000AA36B107D9F710E0AAE6B0E001C01D92A8
:10007000A13BB107E1F710E0C4E4D0E003C0229750
:10008000FE01F6D7C234D107D1F774D52CC8B8CF4A
:10009000A0E0B0E0EDE4F0E0F7C7EC01A880B980A3
:1000A000CA80DB80A114B104C104D10441F484E20C
:1000B000A82E89EDB82E8BE5C82E87E0D82EC60174
:1000C000B5012DE133EF41E050E07FD727EA31E47D
:1000D00040E050E04ED77B018C01C601B5012DE117
:1000E00033EF41E050E071D7CA01B9012CEE34EF93
:1000F0004FEF5FEF3ED76E0D7F1D801F911F97FF63
:1001000004C06150704080409048688379838A833E
:100110009B839B01AC015F77B901CA01CDB7DEB704
:10012000EAE0CEC7B5DF089580E690E0B1DF08953C
:10013000609360007093610080936200909363000D
:100140000895DC0101C06D9341505040E0F70895DF
:100150008EE690E06AE070E040E021E05DD2089534
:10016000CF92DF92FF920F931F93CF93DF938DE790
:10017000C82E80E0D82EC0E0D0E066EF7FEF80E0B0
:1001800090E02AE030E040E050E0D0D49B01AC01A8
:10019000F6013183208320916A00F22EF60E620F61
:1001A000711D882777FD8095982F98D523EC35EF22
:1001B00048EA5EE361D664D58B019C018EE690E04F
:1001C000BE014F2D202F00E04DD1219684E090E01C
:1001D000C80ED91ECA30D10581F6DF91CF911F918B
:1001E0000F91FF90DF90CF9008951F93CF93DF93EF
:1001F000C0E0D0E010916A00612F70E0882777FDA1
:100200008095982F6BD523EC35EF48EA5EE334D622
:1002100037D59B01AC018EE690E0612F422F20E0A4
:10022000FDD09B01AC018EE690E0BE0135D1219658
:10023000CA30D105F9F6DF91CF911F91089581E081
:10024000FDD368E070E0AED680916C00681708F4CA
:10025000682F80916D00861708F4682F862F089507
:10026000EEDF80936B0012C0321710F4215003C0F0
:10027000231718F42F5F20936A00B7DF8EE690E013
:1002800079D062E370E080E090E062D320916A0070
:1002900030916B00822F90E0831B910997FF03C080
:1002A000909581959F4F0B97F8F65ADF8EE690E078
:1002B00061D062E370E080E090E04AD308950F934C
:1002C0001F93CF93DF9380E090E020E80FB6F8947F
:1002D00026BD86BD0FBE8EE690E0B3D18EE690E0DF
:1002E00049D082E0ABD33FD4AADF80936A0060E0BC
:1002F00070E080E89FE320E030E040E050E058D438
:1003000044D4BED4DC01CB0190E06AE070E01FD69B
:1003100080936C009FE7981B90936D00CBE7D0E033
:1003200001E010E01EC060E070E080E090E021E0BD
:1003300030E040E050E0FAD319821882611571056F
:100340008105910511F41983088366EF7FEF80E042
:1003500090E02AE030E040E050E0E8D37B836A831D
:10036000249680E0C33AD807F1F6DF91CF911F9130
:100370000F9108951F93CF93DF93DC018D919C9192
:10038000119763E070E0E3D5EC01219640E050E086
:100390003DC010E860E070E0812F90E01296ED9192
:1003A000FC911397E40FF51F208130E08223932303
:1003B0001A96ED91FC911B9717962C911797892B04
:1003C00021F08081822B808304C0808120952823A6
:1003D00020831896ED91FC911997808116969C9137
:1003E0001697892B80831896ED91FC91199790812F
:1003F00016968C91169780958923808316956F5F4A
:100400007F4F6830710541F64F5F5F4F4C175D07B6
:1004100008F4BFCFDF91CF911F9108950F931F93E1
:10042000822F062F10E020E030E0322F212F102FF6
:10043000002700681068206850E060E070E0BA01B2
:1004400055274427042B152B262B372B90E0A0E0B3
:10045000B0E0082B192B2A2B3B2BB801C9011F91A7
:100460000F9108950F93FC0180819181681779079E
:1004700088F4CB0163E070E06AD50280F381E02D5F
:10048000E80FF91F2068DF012D9340684183006861
:1004900011960C930F910895EF92FF920F931F9373
:1004A000FC0179018A018081918168177907C8F47C
:1004B000CB0163E070E04BD522813381280F391FD7
:1004C000C801AA27BB278068F9018193BB27A12F08
:1004D000902F8F2D8068D90111968C938E2D806876
:1004E00081831F910F91FF90EF9008950F931F93B9
:1004F000CF93DF938C01EB01DC0112968D919C91DF
:100500001397009709F044D1F801D183C083CE013D
:1005100063E070E01CD5EC0101969DD0D8011396E4
:100520009C938E931297009769F060E870E0AE019B
:1005300008DED8011296ED91FC911397EC0FFD1F88
:10054000108203C0F80111821082DF91CF911F91B8
:100550000F910895CF93DF93EC018D8161E087D2F5
:100560008C8161E084D2EA85FB8590818F818095C2
:100570008923808328E0E885F98580819E81892B05
:100580008083E885F98590818E8180958923808399
:10059000215089F7DF91CF910895DC0115966C9376
:1005A000159714964C931497242F30E0F901E05DD1
:1005B000FF4FE491F0E0EE0FFF1FEC5DFF4F8591E0
:1005C000949119969C938E9318972A5C3F4FF9014A
:1005D000449116964C931697262F30E0F901E05D72
:1005E000FF4FE491F0E0EE0FFF1FEC5DFF4F8591B0
:1005F00094911B969C938E931A972A5C3F4FF90116
:10060000649117966C9317971C968C911C97813068
:1006100011F4CD019FDF0895EF92FF920F931F9386
:100620008C01F42EE22EFC011382128214865EDF0E
:10063000C8016F2D4E2DB1DF1F910F91FF90EF90EC
:1006400008950F931F938C0185DF81E0F801848763
:100650001F910F9108950F931F93CF93DF93BC01C8
:100660008230910510F462E070E0E091AF00F0910B
:10067000B000A0E0B0E040E050E024C08081918173
:1006800086179707D0F08617970771F482819381B8
:10069000109729F013969C938E9312972CC09093E9
:1006A000B0008093AF0027C04115510519F08417A1
:1006B000950718F4EF018D01AC01DF018281938170
:1006C0009C01F9013097D1F641155105F9F0CA01A5
:1006D000861B970B8430910580F48A819B810115DC
:1006E000110521F0F8019383828304C09093B00038
:1006F0008093AF00FE01329645C0FE01E80FF91F5E
:10070000619371930297998388833CC08091AD0077
:100710009091AE00892B41F4809166009091670022
:100720009093AE008093AD004091680050916900B5
:100730004115510541F44DB75EB780916400909129
:100740006500481B590B2091AD003091AE00241775
:100750003507B0F4CA01821B930B8617970780F008
:10076000AB014E5F5F4F8417950750F0420F531F48
:100770005093AE004093AD00F9016193719302C0B4
:10078000E0E0F0E0CF01DF91CF911F910F9108954C
:10079000CF93DF939C01009709F48FC0EC0122975F
:1007A0001B821A826091AF007091B00061157105D3
:1007B00081F488819981820F931F2091AD0030913F
:1007C000AE002817390739F5D093AE00C093AD00BD
:1007D00074C0DB0140E050E0AC17BD0708F1BB83FB
:1007E000AA83FE0121913191E20FF31FAE17BF07DB
:1007F00079F48D919C911197280F391F2E5F3F4FEF
:100800003983288312968D919C9113979B838A83B9
:100810004115510571F4D093B000C093AF004DC0A5
:1008200012968D919C911397AD01009711F0DC0108
:10083000D3CFDA011396DC93CE931297FA0121916C
:100840003191E20FF31FCE17DF0769F48881998198
:10085000280F391F2E5F3F4FFA01318320838A8191
:100860009B8193838283E0E0F0E0DB0112968D911F
:100870009C911397009719F0BC01FD01F6CFAB01D5
:100880004E5F5F4FDB018D919C91840F951F2091EE
:10089000AD003091AE002817390779F4309729F46C
:1008A0001092B0001092AF0002C013821282425028
:1008B00050405093AE004093AD00DF91CF9108952A
:1008C0001F920F920FB60F9211242F933F938F9385
:1008D0009F93AF93BF938091A7009091A800A091A0
:1008E000A900B091AA003091AB000196A11DB11DE5
:1008F000232F2D5F2D3720F02D570196A11DB11DFF
:100900002093AB008093A7009093A800A093A90028
:10091000B093AA008091A3009091A400A091A5009B
:10092000B091A6000196A11DB11D8093A3009093E4
:10093000A400A093A500B093A600BF91AF919F9192
:100940008F913F912F910F900FBE0F901F90189590
:100950009B01AC017FB7F8948091A3009091A40013
:10096000A091A500B091A60062B708B601FE05C02F
:100970006F3F19F00196A11DB11D7FBFBA2FA92F9E
:10098000982F8827860F911DA11DB11D62E0880F49
:10099000991FAA1FBB1F6A95D1F7BC012EC0FFB7D4
:1009A000F8948091A3009091A400A091A500B0912B
:1009B000A600E2B708B601FE05C0EF3F19F00196A8
:1009C000A11DB11DFFBFBA2FA92F982F88278E0F09
:1009D000911DA11DB11DE2E0880F991FAA1FBB1F29
:1009E000EA95D1F7861B970B885E9340C0F22150A1
:1009F00030404040504068517C4F21153105410541
:100A0000510569F6089578948AB582608ABD8AB5E1
:100A100081608ABD83B7826083BF83B7816083BFF3
:100A200089B7826089BF80B7826080BF80B78160EC
:100A300080BF329A319A309A379A0895982F8E3023
:100A400008F09E5097708091AC008295880F880FB7
:100A5000807C892B87B9369A3699FECF24B145B16F
:100A6000942F80E030E0282B392BC9010895CF93D3
:100A7000DF93482F50E0CA018A5C9F4FFC013491FC
:100A8000405D5F4FFA018491882369F190E0880FFF
:100A9000991FFC01E25EFF4FA591B491FC01EC5D52
:100AA000FF4FC591D491662351F42FB7F8948C91E0
:100AB000932F909589238C93888189230BC0623072
:100AC00061F42FB7F8948C91932F909589238C9390
:100AD0008881832B88832FBF06C09FB7F8948C91A1
:100AE000832B8C939FBFDF91CF910895EF92FF925C
:100AF0000F931F937B018C01611571058105910591
:100B000029F420E030E040E050E009C00DDBA8010E
:100B100097015BD2AC01CB01DA019C01AD01B901B7
:100B2000CA011F910F91FF90EF900895EF92FF92ED
:100B30000F931F937B018C0162177307840795073E
:100B40005CF4261B370B480B590BCA01B901CEDFE9
:100B5000E60EF71E081F191FB701C8011F910F915C
:100B6000FF90EF900895009721F0BC0180E090E0A5
:100B7000DFDA0895CF93DF9346DFA1DBC0E0D0E05A
:100B80006FDB2097E9F33CDAFBCF58D180F09F3739
:100B900040F491110EF46AC160E070E080E89FE3D8
:100BA000089526F01B16611D711D811DD8C0F2C06D
:100BB0000CD011C109D140F000D130F021F45F3FD9
:100BC00019F0C7C0511152C1F5C016D198F399233D
:100BD000C9F35523B1F3951B550BBB27AA27621701
:100BE0007307840738F09F5F5F4F220F331F441F46
:100BF000AA1FA9F333D00E2E3AF0E0E830D091507E
:100C00005040E695001CCAF729D0FE2F27D0660F6A
:100C1000771F881FBB1F261737074807AB07B0E8A9
:100C200009F0BB0B802DBF01FF2793585F4F2AF0BF
:100C30009E3F510568F08DC019C15F3FECF3983EAF
:100C4000DCF3869577956795B795F7959F5FC9F71C
:100C5000880F911D9695879597F90895E1E0660FA5
:100C6000771F881FBB1F621773078407BA0720F01E
:100C7000621B730B840BBA0BEE1F88F7E095089587
:100C8000C3D088F09F5790F0B92F9927B751A0F0A3
:100C9000D1F0660F771F881F991F1AF0BA95C9F710
:100CA00012C0B13081F0E1D0B1E00895DEC0672F0D
:100CB000782F8827B85F39F0B93FCCF386957795C0
:100CC0006795B395D9F73EF49095809570956195A9
:100CD0007F4F8F4F9F4F0895E89409C097FB3EF4D4
:100CE00090958095709561957F4F8F4F9F4F992379
:100CF000A9F0F92F96E9BB279395F69587957795F7
:100D00006795B795F111F8CFFAF4BB0F11F460FFB6
:100D10001BC06F5F7F4F8F4F9F4F16C0882311F00E
:100D200096E911C0772321F09EE8872F762F05C022
:100D3000662371F096E8862F70E060E02AF09A95BD
:100D4000660F771F881FDAF7880F9695879597F9B2
:100D5000089597F99F6780E870E060E00895882320
:100D600071F4772321F09850872B762F07C06623E4
:100D700011F499270DC09051862B70E060E02AF0A5
:100D80009A95660F771F881FDAF7880F96958795D3
:100D900097F908959F3F49F0915028F486957795EB
:100DA0006795B7959F5F80389F4F880F9695879579
:100DB00097F908959FEF80EC089500240A94161681
:100DC000170618060906089500240A941216130639
:100DD000140605060895092E0394000C11F48823C7
:100DE00052F0BB0F40F4BF2B11F460FF04C06F5FE3
:100DF0007F4F8F4F9F4F089557FD9058440F551FB9
:100E000059F05F3F71F04795880F97FB991F61F08C
:100E10009F3F79F087950895121613061406551F03
:100E2000F2CF4695F1DF08C0161617061806991F6F
:100E3000F1CF86957105610508940895E5DFA0F06E
:100E4000BEE7B91788F4BB279F3860F41616B11DAA
:100E5000672F782F8827985FF7CF869577956795C6
:100E6000B11D93959639C8F30895E894BB2766277A
:100E70007727CB0197F908950AD0ADCF9EDF28F0F0
:100E8000A3DF18F0952309F064CF94CFEFCFB4DF40
:100E9000A8F39923D9F35523C9F3950F50E0551FB3
:100EA000AA27EE27FF27BB2700240894679520F484
:100EB000E20FF31FB41F0A1E220F331F441FAA1F85
:100EC0006695A9F7779530F4F30FB41F0A1E121E2A
:100ED00008F46395330F441FAA1F221F769599F7D4
:100EE000879520F4B40F0A1E121E631F440FAA1F19
:100EF000221F331F8695A9F7862F712D602D11248F
:100F00009F5750408AF0E1F088234AF0EE0FFF1F10
:100F1000BB1F661F771F881F91505040A9F79E3F47
:100F2000510570F016CFA2CF5F3FECF3983EDCF393
:100F3000869577956795B795F795E7959F5FC1F784
:100F4000FE2B880F911D9695879597F90895552743
:100F5000002480FF02C0060E571F660F771F611521
:100F6000710521F096958795009799F7952F802D1B
:100F70000895FF27EE27BB27AA2760FF04C0A20F12
:100F8000B31FE41FF51F220F331F441F551F9695F3
:100F900087957795679589F70097760771F7CF0161
:100FA000BD01089597FB092E07260AD077FD04D0CE
:100FB00027D006D000201AF4709561957F4F0895D0
:100FC000F6F7909581959F4F089597FB092E05267A
:100FD0000ED057FD04D028D00AD0001C38F450950C
:100FE0004095309521953F4F4F4F5F4F0895F6F74D
:100FF00090958095709561957F4F8F4F9F4F089585
:10100000AA1BBB1B51E107C0AA1FBB1FA617B7072E
:1010100010F0A61BB70B881F991F5A95A9F780954A
:101020009095BC01CD010895A1E21A2EAA1BBB1B0D
:10103000FD010DC0AA1FBB1FEE1FFF1FA217B307A4
:10104000E407F50720F0A21BB30BE40BF50B661FBA
:10105000771F881F991F1A9469F76095709580957E
:1010600090959B01AC01BD01CF010895EE0FFF1FCC
:101070000590F491E02D09942F923F924F925F9248
:101080006F927F928F929F92AF92BF92CF92DF9298
:10109000EF92FF920F931F93CF93DF93CDB7DEB7FD
:1010A000CA1BDB0B0FB6F894DEBF0FBECDBF099491
:1010B0002A88398848885F846E847D848C849B84E8
:1010C000AA84B984C884DF80EE80FD800C811B81F6
:1010D000AA81B981CE0FD11D0FB6F894DEBF0FBE25
:0A10E000CDBFED010895F894FFCF95
:0A10EA00010000008000B1000000CA
:00000001FF
